:020000040800F2
:10000000006000208D0000088900000889000008B9
:1000100000000000000000000000000000000000E0
:10002000000000000000000000000000890000083F
:10003000890000080000000089000008890000080D
:1000400001230D4A11680B431360A023DB051A68D6
:100050000A490A401A6080221968D2000A43202106
:100060001A60074A13684B401360064B1800013BA7
:100070000028F7D0C046F9E734100240FFF3FFFF35
:1000800014000050E0930400FEE7000010B5094A98
:10009000094B0A498B4207D30021094B094A934275
:1000A00005D3FFF7CDFFFEE701CA01C3F2E702C3A4
:1000B000F5E7C046C800000800000020000000204E
:0800C0000000002000000020F8
:040000050800008D62
:00000001FF
